:1000000002C100002CC100002AC1000028C100006C
:1000100026C1000024C1000022C1000020C1000050
:100020001EC100001CC100001AC1000018C1000060
:1000300016C1000014C1000012C1000010C1000070
:100040000EC100000CC100000AC1000008C1000080
:1000500006C1000004C1000002C10000ACC30000E2
:10006000FEC00000FCC00000FAC00000F8C00000A4
:10007000F6C00000F4C00000F2C00000F0C00000B4
:10008000EEC00000ECC00000EAC00000E8C00000C4
:10009000E6C00000E4C00000E2C00000E0C00000D4
:1000A000DEC00000DCC00000DAC00000D8C00000E4
:1000B000D6C00000D4C00000D2C00000D0C00000F4
:1000C000CEC00000CCC00000CAC00000C8C0000004
:1000D000C6C00000C4C00000C2C00000C0C0000014
:1000E000BEC0000000002100240027002A002D00CF
:1000F0003000330001010000040107010A01000083
:100100002200250028002B002E00310034000201BF
:100110000000050108010B0100002000230026005B
:1001200029002C002F00320000010000030106010D
:10013000090105050505070508080808020202026D
:100140000A0A080804040404010101010101010173
:100150000303030303030303040707070C0C0C0C3E
:100160000C0C0C0C02020202060606060606060627
:100170000B0B0B0B0B0B0B0B0102102020080810B4
:100180002040102040800201020108040201010207
:1001900004081020408080402010080402018004E0
:1001A000020180402010080402010804020101023B
:1001B0000408102040800102040810204080000044
:1001C000090A02080B0C0D070603040100000000D9
:1001D000000000000000000000000000000000001F
:1001E0000000000000000000000011100F000000DF
:1001F00000000000000000000000000000000000FF
:1002000000000000300111241FBECFEFD1E2DEBF9D
:10021000CDBF00E00CBF12E0A0E0B2E0E6EFF3E1FA
:1002200000E00BBF02C007900D92AA33B107D9F7C7
:100230001BBE12E0AAE3B2E001C01D92AE35B107C9
:10024000E1F712E0C6E0D2E004C02297FE010E946E
:10025000F509C430D107C9F7E2D40C94F909D0CE1E
:10026000CF92EF920F9380E492E06CE04BE025E0B8
:1002700004E053E0E52E32E0C32E65D20F91EF90FB
:10028000CF900895EF92FF920F931F9387E0AED324
:1002900090933B0280933A02AA2797FDA095BA2F2C
:1002A000BC01CD0148D728E638EE4FE95BE3F7D72C
:1002B00020E030E048EC52E4F2D760933C027093C7
:1002C0003D0280933E0290933F0280E492E060E022
:1002D00041E068D180E492E060E072E096D5B3D26C
:1002E00028EE33E040E050E00E94D10980E492E043
:1002F000BA01A9012AE030E03DD580E492E067E050
:1003000072E083D5E0903C02F0903D0200913E0205
:1003100010913F02C801B70120E030E040EA51E40B
:10032000BAD788232CF1C801B70120E030E040EDB6
:1003300051E462D61816E4F080E492E060E040E018
:1003400031D180E492E06CE072E05FD540913C02F4
:1003500050913D0260913E0270913F0280E492E034
:1003600022E030E0E2D580E492E062E172E04DD537
:1003700060913C0270913D0280913E0290913F025B
:1003800020E030E040ED51E486D71816E4F480E434
:1003900092E060E040E006D180E492E06CE072E040
:1003A00034D540913C0250913D0260913E027091E3
:1003B0003F0280E492E022E030E0B7D580E492E0B2
:1003C0006AE172E022D560913C0270913D02809119
:1003D0003E0290913F0220E030E040EA51E40CD62A
:1003E0008823E4F480E492E060E040E0DBD080E445
:1003F00092E06CE072E009D540913C0250913D02E0
:1004000060913E0270913F0280E492E022E030E091
:100410008CD580E492E060E272E0F7D468EE73E09D
:1004200080E090E01ED21F910F91FF90EF90089511
:1004300080E492E060E142E020E0E7C00F931F9388
:100440008C01FC01868160E0B8D381E090E062D24B
:10045000F801868161E0B1D381E090E05BD2F801E0
:10046000868160E0AAD384E690E054D21F910F9178
:100470000895CF92DF92EF92FF920F931F93CF9345
:10048000DF93D82EC92E282F392FC9018C01C0E047
:10049000D0E0E62EFF24F801878161E0DBD2B701CE
:1004A0000C2E02C0759567950A94E2F76170F80109
:1004B000878183D321960F5F1F4FC830D10559F72D
:1004C0008D2D9C2DBBDFDF91CF911F910F91FF9060
:1004D000EF90DF90CF900895CF92DF92EF92FF924E
:1004E0000F931F93CF93DF93D82EC92E282F392F28
:1004F000C9018C01C0E0D0E0E62EFF24F80187811D
:1005000061E0A8D2B7010C2E02C0759567950A94D8
:10051000E2F76170F801878150D321960F5F1F4F7A
:10052000C430D10559F78D2D9C2D88DFDF91CF91F7
:100530001F910F91FF90EF90DF90CF9008951F9340
:10054000CF93DF93EC01162F8C81642F36D38D81EE
:100550008F3F11F060E031D38F8584FF04C0CE015E
:10056000612F87DF0CC0612F70E084E0759567957F
:100570008A95E1F7CE01B0DFCE01612FADDFDF91CB
:10058000CF911F91089541E0DADF81E090E0089576
:1005900040E0D5CFFC016089862F8460808B6C6041
:1005A000CF01F6CFDF93CF93CDB7DEB728970FB645
:1005B000F894DEBF0FBECDBF9C01FE013196A2E3D1
:1005C000B2E088E00D9001928150E1F7F901838952
:1005D000481710F0482F4150E42FF0E0EE0FFF1FB6
:1005E000EC0FFD1F8181680F6068C901D1DF28967B
:1005F0000FB6F894DEBF0FBECDBFCF91DF91089547
:1006000061E0C6DF80ED97E085C1CF93DF93EC0119
:10061000423018F08F8588608F874B8B1C8A22238D
:1006200029F0413019F48F8584608F8780E593EC41
:1006300071D18C8160E0C1D28E8160E0BED28D81AB
:100640008F3F11F060E0B9D26F8564FD16C0CE0116
:1006500063E042DF84E991E15DD1CE0163E03CDFFC
:1006600084E991E157D1CE0163E036DF86E990E07D
:1006700051D1CE0162E030DF11C06062CE0188DF6F
:1006800084E991E147D16F856062CE0181DF86E91F
:1006900090E040D16F856062CE017ADF6F85606245
:1006A000CE0176DF84E0888BCE0174DFCE01A8DF37
:1006B00082E0898BCE0166E06BDFDF91CF910895F8
:1006C0006F927F928F92AF92CF92EF920F931F9380
:1006D000DF93CF93CDB7DEB73C01162F842FF30104
:1006E000448325830683E782C086A18682869E8511
:1006F00093879F859487988995879989968761E0E4
:10070000A9D1F30185818F3F11F061E0A3D1F301FD
:10071000868161E09FD1112319F0F301178603C090
:1007200080E1F3018787C30160E141E020E06DDFF4
:10073000CF91DF911F910F91EF90CF90AF908F905D
:100740007F906F9008958F92AF92CF92EF920F9318
:100750001F93CF93DF93DC01362F542F722F102F6E
:10076000AE2C8C2C13961C921E9212978EE292E065
:1007700011969C938E9300D00F92EDB7FEB73196F1
:10078000CDB7DEB71982118212821382CD0161E0EA
:10079000432F2FEF052FE72EC12E92DF0F900F90E2
:1007A0000F900F90DF91CF911F910F91EF90CF900D
:1007B000AF908F9008951F920F920FB60F92112451
:1007C0002F933F938F939F93AF93BF938091590241
:1007D00090915A02A0915B02B0915C0230915D024F
:1007E0000196A11DB11D232F2D5F2D3720F02D5710
:1007F0000196A11DB11D20935D0280935902909333
:100800005A02A0935B02B0935C02809155029091D2
:100810005602A0915702B09158020196A11DB11D38
:100820008093550290935602A0935702B0935802BA
:10083000BF91AF919F918F913F912F910F900FBEDC
:100840000F901F9018958FB7F8942091590230910E
:100850005A0240915B0250915C028FBFB901CA01FC
:1008600008959B01AC017FB7F89480915502909157
:100870005602A0915702B091580266B5A89B05C0D8
:100880006F3F19F00196A11DB11D7FBFBA2FA92F8F
:10089000982F8827860F911DA11DB11D62E0880F3A
:1008A000991FAA1FBB1F6A95D1F7BC012DC0FFB7C6
:1008B000F8948091550290915602A0915702B09100
:1008C0005802E6B5A89B05C0EF3F19F00196A11D9F
:1008D000B11DFFBFBA2FA92F982F88278E0F911D0A
:1008E000A11DB11DE2E0880F991FAA1FBB1FEA9549
:1008F000D1F7861B970B885E9340C8F22150304099
:100900004040504068517C4F21153105410551054B
:1009100071F60895019739F0880F991F880F991F74
:1009200002970197F1F70895789484B5826084BDA9
:1009300084B5816084BD85B5826085BD85B58160E3
:1009400085BDEEE6F0E0808181608083E1E8F0E043
:100950001082808182608083808181608083E0E872
:10096000F0E0808181608083E1EBF0E08081846051
:100970008083E0EBF0E0808181608083E1E9F0E05A
:10098000808182608083808181608083E0E9F0E003
:10099000808181608083E1EAF0E0808182608083F1
:1009A000808181608083E0EAF0E0808181608083E3
:1009B000E1E2F1E0808182608083808181608083D8
:1009C000E0E2F1E0808181608083EAE7F0E080810D
:1009D0008460808380818260808380818160808365
:1009E0008081806880831092C1000895382F8633FB
:1009F00008F0365320917B00832F86958695869547
:100A000090E08170907043E0880F991F4A95E1F75C
:100A1000277F282B20937B003770809129028295B5
:100A2000880F880F807C832B80937C0080917A00D4
:100A3000806480937A0080917A0086FDFCCF2091BB
:100A4000780040917900942F80E030E0282B392BFA
:100A5000C9010895CF93DF93482F50E0CA01885809
:100A60009E4FFC0134914E5C5E4FFA0184918823C5
:100A700069F190E0880F991FFC01EC51FF4FA5919F
:100A8000B491FC01E250FF4FC591D491662351F41B
:100A90002FB7F8948C91932F909589238C9388810C
:100AA00089230BC0623061F42FB7F8948C91932F97
:100AB000909589238C938881832B88832FBF06C0D0
:100AC0009FB7F8948C91832B8C939FBFDF91CF912C
:100AD0000895893009F449C08A30A0F4843051F176
:100AE000853040F4823079F1833000F5813009F0AF
:100AF00063C026C0873079F1883098F5863009F0D8
:100B00005BC025C08D3009F442C08E3028F48B3094
:100B1000B1F18C30C0F52DC0803109F442C0813173
:100B200009F445C08F3009F047C037C0809180007C
:100B30008F7703C0809180008F7D8093800008951F
:100B400084B58F7702C084B58F7D84BD0895809170
:100B5000B0008F7703C08091B0008F7D8093B0008C
:100B60000895809190008F7707C0809190008F7DCD
:100B700003C080919000877F8093900008958091BA
:100B8000A0008F7707C08091A0008F7D03C0809167
:100B9000A000877F8093A0000895809120018F7727
:100BA00003C0809120018F7D809320010895809162
:100BB0002001877F809320010895FF920F931F9358
:100BC000F62E482F50E0CA0182549E4FFC0124911A
:100BD000CA0188589E4FFC0114914E5C5E4FFA0189
:100BE00004910023C1F0222311F0822F72DFE02F45
:100BF000F0E0EE0FFF1FE250FF4FA591B4919FB7B9
:100C0000F894FF2021F48C911095812302C08C91DF
:100C1000812B8C939FBF1F910F91FF900895CF93CD
:100C2000DF9382DE05DCC0E0D0E02CDB2097E9F327
:100C30000E940000FACFCF92DF92EF92FF920F93C3
:100C40001F93CF93DF937C016B018A01C0E0D0E05A
:100C50000FC0D6016D916D01D701ED91FC9101900E
:100C6000F081E02DC7011995C80FD91F0150104020
:100C70000115110571F7CE01DF91CF911F910F91F1
:100C8000FF90EF90DF90CF900895CF93DF93DB013B
:100C90000D900020E9F71197A61BB70BEC01E88136
:100CA000F9810280F381E02DAD011995DF91CF919B
:100CB00008954F925F927F928F929F92AF92BF92D0
:100CC000CF92DF92EF92FF920F931F93DF93CF9318
:100CD000CDB7DEB7A1970FB6F894DEBF0FBECDBF7C
:100CE0002C01742ECB01223008F42AE019A231E243
:100CF000C32ED12CCC0EDD1E822E9924AA24BB2417
:100D0000672D752FA50194014CD379018A01C80183
:100D1000B701A501940126D3472D461B0894C108AD
:100D2000D1084A3014F4405D01C0495CF6014083AB
:100D3000E114F1040105110521F07E2C5F2DC8019D
:100D4000DFCFC201B601A1DFA1960FB6F894DEBFD6
:100D50000FBECDBFCF91DF911F910F91FF90EF900C
:100D6000DF90CF90BF90AF909F908F907F905F90DB
:100D70004F900895DC012115310541F4ED91FC916E
:100D80000190F081E02D642F1995089592CFCF92B4
:100D9000DF92EF92FF920F931F93CF93DF93EC01BB
:100DA0006A017B012115310541F4E881F981019047
:100DB000F081E02D642F19951DC02A303105C9F44A
:100DC00077FF16C0E881F9810190F081E02D6DE296
:100DD00019958C0144275527BA014C195D096E09F4
:100DE0007F09CE012AE065DF9801280F391F03C073
:100DF0002AE05FDF9C01C901DF91CF911F910F9124
:100E0000FF90EF90DF90CF9008953FCF08957F92AD
:100E10008F929F92AF92BF92CF92DF92EF92FF920A
:100E20000F931F93CF93DF934C017A018B01722EA6
:100E3000CB01BA0120E030E040E050E0DDD087FD9A
:100E400003C0C0E0D0E00EC0D401ED91FC91019050
:100E5000F081E02DC4016DE21995EC0117FB1095AE
:100E600017F9109520E030E040E05FE3AA240AC0C3
:100E7000CA01B90120E030E040E251E4C1D09B0159
:100E8000AC01A394A714A0F3C801B70151D05B0132
:100E90006C0123D17B018C01C401B801A7012AE0B8
:100EA00030E068DFC80FD91F772031F0C40167E256
:100EB00072E0EBDEC80FD91FC801B7013AD19B0120
:100EC000AC01C601B50133D01FC020E030E040E2E4
:100ED00051E4E5D17B018C01FBD05B016C01CC249A
:100EE000B7FCC094DC2CC401B601A5012AE030E0B7
:100EF0004EDFC80FD91FC601B5011DD19B01AC0142
:100F0000C801B70114D07A947720F9F6CE01DF91A9
:100F1000CF911F910F91FF90EF90DF90CF90BF90F6
:100F2000AF909F908F907F90089571CF0895505803
:100F3000BB27AA270ED075C166D130F06BD120F047
:100F400031F49F3F11F41EF45BC10EF4E095E7FB12
:100F500051C1E92F77D180F3BA176207730784076D
:100F6000950718F071F49EF58FC10EF4E0950B2EE5
:100F7000BA2FA02D0B01B90190010C01CA01A001EB
:100F80001124FF27591B99F0593F50F4503E68F146
:100F90001A16F040A22F232F342F4427585FF3CF87
:100FA000469537952795A795F0405395C9F77EF458
:100FB0001F16BA0B620B730B840BBAF09150A1F0A1
:100FC000FF0FBB1F661F771F881FC2F70EC0BA0F27
:100FD000621F731F841F48F4879577956795B795AF
:100FE000F7959E3F08F0B3CF9395880F08F09927A7
:100FF000EE0F979587950895D9D008F481E008956C
:101000000CD00FC107D140F0FED030F021F45F3F8B
:1010100019F0F0C0511139C1F3C014D198F39923DC
:10102000C9F35523B1F3951B550BBB27AA276217AC
:101030007307840738F09F5F5F4F220F331F441FF1
:10104000AA1FA9F333D00E2E3AF0E0E830D0915029
:101050005040E695001CCAF729D0FE2F27D0660F16
:10106000771F881FBB1F261737074807AB07B0E855
:1010700009F0BB0B802DBF01FF2793585F4F2AF06B
:101080009E3F510568F0B6C000C15F3FECF3983E4B
:10109000DCF3869577956795B795F7959F5FC9F7C8
:1010A000880F911D9695879597F90895E1E0660F51
:1010B000771F881FBB1F621773078407BA0720F0CA
:1010C000621B730B840BBA0BEE1F88F7E095089533
:1010D00004D06894B111D9C00895BCD088F09F574E
:1010E00090F0B92F9927B751A0F0D1F0660F771F74
:1010F000881F991F1AF0BA95C9F712C0B13081F054
:10110000C3D0B1E00895C0C0672F782F8827B85F9B
:1011100039F0B93FCCF3869577956795B395D9F7B4
:101120003EF490958095709561957F4F8F4F9F4FBE
:101130000895E89409C097FB3EF4909580957095CA
:1011400061957F4F8F4F9F4F9923A9F0F92F96E913
:10115000BB279395F695879577956795B795F11188
:10116000F8CFFAF4BB0F11F460FF1BC06F5F7F4F25
:101170008F4F9F4F16C0882311F096E911C0772337
:1011800021F09EE8872F762F05C0662371F096E840
:10119000862F70E060E02AF09A95660F771F881F0F
:1011A000DAF7880F9695879597F90895990F0008B3
:1011B000550FAA0BE0E8FEEF16161706E807F90729
:1011C000C0F012161306E407F50798F0621B730BC4
:1011D000840B950B39F40A2661F0232B242B252B45
:1011E00021F408950A2609F4A140A6958FEF811DE8
:1011F000811D089597F99F6780E870E060E0089589
:101200009FEF80EC089500240A941616170618061E
:101210000906089500240A941216130614060506FA
:101220000895092E0394000C11F4882352F0BB0F8B
:1012300040F4BF2B11F460FF04C06F5F7F4F8F4FEE
:101240009F4F089557FD9058440F551F59F05F3F29
:1012500071F04795880F97FB991F61F09F3F79F0D8
:1012600087950895121613061406551FF2CF46955A
:10127000F1DF08C0161617061806991FF1CF8695DC
:101280007105610508940895E894BB2766277727C0
:10129000CB0197F908958ADF08F48FEF08950BD0FA
:1012A000C0CFB1DF28F0B6DF18F0952309F0A2CF48
:1012B000A7CF1124EACFC6DFA0F3959FD1F3950FF6
:1012C00050E0551F629FF001729FBB27F00DB11DCA
:1012D000639FAA27F00DB11DAA1F649F6627B00D5A
:1012E000A11D661F829F2227B00DA11D621F739F43
:1012F000B00DA11D621F839FA00D611D221F749F51
:101300003327A00D611D231F849F600D211D822F97
:10131000762F6A2F11249F5750408AF0E1F08823DE
:101320004AF0EE0FFF1FBB1F661F771F881F9150EB
:101330005040A9F79E3F510570F05CCFA6CF5F3FAC
:10134000ECF3983EDCF3869577956795B795F7951E
:10135000E7959F5FC1F7FE2B880F911D96958795A6
:1013600097F90895629FD001739FF001829FE00D6D
:10137000F11D649FE00DF11D929FF00D839FF00D14
:10138000749FF00D659FF00D9927729FB00DE11DC0
:10139000F91F639FB00DE11DF91FBD01CF0111249D
:1013A0000895A1E21A2EAA1BBB1BFD010DC0AA1FA6
:1013B000BB1FEE1FFF1FA217B307E407F50720F0BE
:1013C000A21BB30BE40BF50B661F771F881F991F39
:1013D0001A9469F760957095809590959B01AC0182
:1013E000BD01CF010895EE0FFF1F0590F491E02D90
:0613F0001994F894FFCFF0
:1013F60054656D706F3A00207365670054656D70B3
:101406003A00204E6F726D616C0020416C74610071
:10141600204261697861002E000100000000C302CD
:0A1426001B060000400014005400F3
:00000001FF
